:020000020000FC
:040000000C94040256
:040044000C944703CE
:1000A8000C948C030E943B0102E00F9300E00F9335
:1000B80003E00F930AEF0F930E94E4010F910F9151
:1000C8000F910F9102E00F9300E00F930E94F1004F
:1000D8000F910F910C946E000C9470000F932F9356
:1000E8003F93009132000F7D24FD0062009334009D
:1000F80000912C00077F25FD086000932E000091D9
:100108000001077F26FD08600093020100910001AD
:100118000F7E27FD00610093020100910001006439
:100128000093020131E00E94C001009100010F7BA1
:10013800009302013F912F910F9108952F933F93C0
:100148000F93DF93CF93DEB7CDB729850E94720056
:1001580032E30E94C00122950E94720032E30E949D
:10016800C001CF91DF910F913F912F9108950F9387
:100178003F932F93DF93CF93DEB7CDB729850091B7
:1001880000010F7D009302012F930E94A2002F917E
:10019800243018F432E00E94CA01CF91DF912F91E8
:1001A8003F910F9108950F932F93DF93CF93DEB76D
:1001B800CDB72885009100010062009302012F93BA
:1001C8000E94A2002F91009122020395009322021F
:1001D800CF91DF912F910F9108950F931F93DF9384
:1001E800CF93FF93EF93DEB7CDB7FB85EA851191E7
:1001F800103029F01F930E94D7001F91F8CFEF917C
:10020800FF91CF91DF911F910F9108950F931F9345
:10021800DF93CF93DEB7CDB70885198511301CF071
:1002280011E00C941A010F300CF00FE0109321022A
:1002380000932202113019F410EC0C94240110E8F8
:10024800010F0F930E94BB000F91CF91DF911F9177
:100258000F9108950F9301E00F930E94BB000F9137
:10026800002700932102009322020F9108950F9313
:100278002F933F9300913300006200933300009165
:1002880032000F7D0093340000912D000860009328
:100298002D0000912C00077F00932E000091010192
:1002A80008600093010100910001077F009302019B
:1002B80000910101006100930101009100010F7E8E
:1002C8000093020100910101006200930101009175
:1002D80000010F7D00930201009101010064009369
:1002E8000101009100010F7B009302013FE00E9491
:1002F800CA0135E00E94CA0120E30E94720035E07D
:100308000E94CA0120E30E94720057E03FE00E9469
:10031800CA015A95D9F720E30E94720032E30E947D
:10032800C00120E20E94720032E30E94C00108E28C
:100338000F930E94BB000F9108E00F930E94BB002F
:100348000F9101E00F930E94BB000F9132E00E94D1
:10035800CA0106E00F930E94BB000F910CE00F93B7
:100368000E94BB000F9100270093210200932202F4
:100378003F912F910F9108950F933F9305E00A95B0
:10038800F1F73A95D9F73F910F9108950F931F937D
:100398003F93DF93CF930DEF309F012D0295007FA0
:1003A800D02F002D0295102F007F1F70C02FD12B4A
:1003B8002197F1F7CF91DF913F911F910F91089508
:1003C8000F93FF93EF93BF93AF93DF93CF93DEB772
:1003D800CDB7EB85FC85AD85BE85059100300D93C5
:1003E800E1F7CF91DF91AF91BF91EF91FF910F911D
:1003F800089548656C6C6F2C20576F726C642100EF
:100408000E943B010E942E0100E20093240200E0BA
:1004180000934502002700E010914802F2E0E5E36E
:1004280001931A95103009F0FBCFEE27FF2700271C
:10043800112700E010914802F2E0E9E401931A95CF
:10044800103009F0FBCFEE27FF2700271127F8E02F
:10045800EAE400E045910395403009F0FBCF4427DA
:100468000A950A95009348020027000000E21091BF
:100478004802F2E0E5E201931A95103009F0FBCF4B
:100488004FEF4DBF51E25EBF4427552706E1002ECE
:1004980003E0102E02E3202E00E0302E0BE2402E67
:1004A80002E0502E00EB602E00E0702E00E6802E59
:1004B80001E0902E07E800937A0000E400937C00A6
:1004C80010E00CE91093890000938800002700933E
:1004D80080000DE00093810002E000936F0016E0B9
:1004E8000BE1109399000093980000270093900067
:1004F8000DE0009391001EE105E81093A900009318
:10050800A80000270093A0000DE00093A10002E0DE
:100518000093720078940AE2009347020FE5009373
:10052800460208B301FFFDCF02E008BB0091230299
:10053800003029F000912302013091F0F2CF0F939F
:100548001F930FB70F9301E01FE00F931F935EDE19
:100558001F910F91009146020F9325DE0F9178C0ED
:100568007CD001E010E00F931F9350DE1F910F9194
:1005780000E20F9318DE0F9101E011E00F931F9333
:1005880045DE1F910F9100E20F930DDE0F9101E000
:1005980012E00F931F933ADE1F910F9100E20F9321
:1005A80002DE0F9101E013E00F931F932FDE1F91DE
:1005B8000F9100E20F93F7DD0F910F931F930FB781
:1005C8000F9301E01FE00F931F9320DE1F910F91FF
:1005D800009147020F93E7DD0F9100912402023545
:1005E800F9F0053589F0043419F00C3429F130C0DC
:1005F80001E011E00F931F9309DE1F910F9104E4AE
:100608000F93D1DD0F9124C001E012E00F931F93E7
:10061800FDDD1F910F9105E50F93C5DD0F9118C002
:1006280001E013E00F931F93F1DD1F910F9102E595
:100638000F93B9DD0F910CC001E010E00F931F93E9
:10064800E5DD1F910F910CE40F93ADDD0F9100C014
:100658000F910FBF1F910F9164CFE5E2F2E000E028
:1006680010E02091480240E050E00F931F93CEDD48
:100678001F910F9141914F9396DD4F91139512174A
:10068800A1F70895FFCF0F9307E800937A0000E0E1
:1006980000937B0000E400937C0000917A000064E2
:1006A80000937A0000917A000074E1F78091780055
:1006B800909179008015910530F501E000932302AF
:1006C80082159305E0F08615970568F08815990559
:1006D80070F08415950578F08015910500F000E21A
:1006E8000093240213C005E5009324020FC004E41C
:1006F800009324020BC00CE40093240207C002E517
:100708000093240203C000E0009323020F91189580
:10071800AF93BF93CF93DF93EF93FF930F931F9301
:100728002F933F930091350210914502E0914900C3
:10073800F091020030E0311719F033953196FBCF74
:10074800008300912302013009F063C00091240264
:10075800043411F1053509F431C0023519F00C34AF
:1007680079F057C00091450210914802011711F025
:100778000395E0E1E093350200934502EE2734C08B
:1007880000914502003011F00A95E0E1E09335024E
:1007980000934502EE2728C02091450200913502BA
:1007A800003021F431E1030F009335020091350246
:1007B800003009F00A950093350216C020914502D1
:1007C8000091350210914802011721F431E1031B11
:1007D800009335020091350210914802011709F083
:1007E80003950093350200C0EAE4F8E0C5E2D2E0E0
:1007F800A5E3B2E02091450230E000E0321719F09D
:1008080033952196FBCF0D91E00F0027F01F04913F
:1008180008833F912F911F910F91FF91EF91DF91E5
:10082800CF91BF91AF911895131729F091E008F077
:1008380007C09FEF05C09927021711F091E0C8F390
:10084800089530313233343536373839616263646C
:0408580065665F0072
:00000001FF
