:020000020000FC
:040000000C94D20189
:100044000C9419020E94090102E00F9300E00F933F
:1000540003E00F9306E90F930E94B2010F910F91F1
:100064000F910F9102E00F9300E00F930E94BF00E5
:100074000F910F910C943C000C943E000F932F931E
:100084003F93009132000F7D24FD00620093340001
:1000940000912C00077F25FD086000932E0000913D
:1000A4000001077F26FD0860009302010091000112
:1000B4000F7E27FD0061009302010091000100649E
:1000C4000093020131E00E948E01009100010F7B38
:1000D400009302013F912F910F9108952F933F9325
:1000E4000F93DF93CF93DEB7CDB729850E944000ED
:1000F40032E30E948E0122950E94400032E30E9466
:100104008E01CF91DF910F913F912F9108950F931D
:100114003F932F93DF93CF93DEB7CDB7298500911B
:1001240000010F7D009302012F930E9470002F9114
:10013400243018F432E00E949801CF91DF912F917E
:100144003F910F9108950F932F93DF93CF93DEB7D1
:10015400CDB72885009100010062009302012F931E
:100164000E9470002F9100912202039500932202B5
:10017400CF91DF912F910F9108950F931F93DF93E8
:10018400CF93FF93EF93DEB7CDB7FB85EA8511914B
:10019400103029F01F930E94A5001F91F8CFEF9112
:1001A400FF91CF91DF911F910F9108950F931F93AA
:1001B400DF93CF93DEB7CDB70885198511301CF0D6
:1001C40011E00C94E8000F300CF00FE010932102C2
:1001D40000932202113019F410EC0C94F20010E890
:1001E400010F0F930E9489000F91CF91DF911F910E
:1001F4000F9108950F9301E00F930E9489000F91CE
:10020400002700932102009322020F9108950F9377
:100214002F933F93009133000062009333000091C9
:1002240032000F7D0093340000912D00086000938C
:100234002D0000912C00077F00932E0000910101F6
:1002440008600093010100910001077F00930201FF
:1002540000910101006100930101009100010F7EF2
:1002640000930201009101010062009301010091D9
:1002740000010F7D009302010091010100640093CD
:100284000101009100010F7B009302013FE00E94F5
:10029400980135E00E94980120E30E94400035E077
:1002A4000E94980120E30E94400057E03FE00E9432
:1002B40098015A95D9F720E30E94400032E30E9446
:1002C4008E0120E20E94400032E30E948E0108E287
:1002D4000F930E9489000F9108E00F930E948900F8
:1002E4000F9101E00F930E9489000F9132E00E9468
:1002F400980106E00F930E9489000F910CE00F9380
:100304000E9489000F91002700932102009322028A
:100314003F912F910F9108950F933F9305E00A9514
:10032400F1F73A95D9F73F910F9108950F931F93E1
:100334003F93DF93CF930DEF309F012D0295007F04
:10034400D02F002D0295102F007F1F70C02FD12BAE
:100354002197F1F7CF91DF913F911F910F9108956C
:100364000F93FF93EF93BF93AF93DF93CF93DEB7D6
:10037400CDB7EB85FC85AD85BE85059100300D9329
:10038400E1F7CF91DF91AF91BF91EF91FF910F9181
:10039400089548656C6C6F2C20576F726C64210053
:1003A40036DF1EE108E7109389000093880000E01F
:1003B400009380000DE00093810002E000936F0041
:1003C400789401E013E00F931F93F0DE1F910F91D7
:1003D40003E40F93B8DE0F9103E50F93B4DE0F919E
:1003E40003E40F93B0DE0F9100E20F93ACDE0F91A4
:1003F40002E30F93A8DE0F9103E30F93A4DE0F91A2
:1004040000E30F93A0DE0F9101E20093230200E2C8
:100414000093240201E01AE00F931F93C7DE1F919B
:100424000F91009123020F938EDE0F91F3CF0F9360
:100434000F930FB70F93009123021091240210938E
:100444002302009324020F910FBF1F910F9118955F
:00000001FF
