:1000000071C000008EC000008CC000008AC00000DB
:1000100088C0000086C0000084C0000082C00000CC
:1000200080C000007EC000007CC000007AC00000DC
:1000300078C0000076C0000074C0000072C00000EC
:1000400070C000006FC000006CC000006AC00000FB
:1000500068C0000066C0000064C0000062C000000C
:1000600060C000005EC000005CC000005AC000001C
:1000700058C0000056C0000054C0000052C000002C
:1000800076C000004EC000004CC000004AC0000016
:1000900048C0000046C0000044C0000042C000004C
:1000A00040C000003EC000003CC000003AC000005C
:1000B00038C0000036C0000034C0000032C000006C
:1000C00030C000002EC000002CC000002AC000007C
:1000D00028C0000026C0000024C0000022C000008C
:1000E00020C0000011241FBECFEFD1E2DEBFCDBF84
:1000F00000E00CBF12E0A0E0B2E0E2E7F6E000E0D2
:100100000BBF02C007900D92A030B107D9F722E0D3
:10011000A0E0B2E001C01D92A830B207E1F702D121
:10012000A6C26ECF1F920F920FB60F9211248F931B
:100130009F93AF93BF938091040290910502A09189
:100140000602B09107020196A11DB11D8093040221
:1001500090930502A0930602B0930702BF91AF915E
:100160009F918F910F900FBE0F901F9018951F9227
:100170000F920FB60F9211248F939F93AF93BF935B
:100180008091000290910102A0910202B0910302BD
:100190000596A11DB11D8093000290930102A093CA
:1001A0000202B0930302BF91AF919F918F910F9084
:1001B0000FBE0F901F90189561112AC08230C1F0B8
:1001C00028F4882349F0813069F008958430E1F003
:1001D000A8F08530D9F00895EBE0F1E080818F77C9
:1001E00080830895EBE0F1E080818F7D8083089526
:1001F000EBE0F1E08081877F80830895EBE0F1E020
:1002000080818D7F808308952B9808952998089583
:10021000613049F58230C1F028F4882349F08130FB
:1002200069F008958430E1F0A8F08530D9F00895A0
:10023000EBE0F1E08081806880830895EBE0F1E0FD
:100240008081806280830895EBE0F1E080818860A6
:1002500080830895EBE0F1E08081826080830895DF
:100260002B9A0895299A0895C82FC12CD12C760174
:1002700020E030E040E85FE3C701B601EBD088231F
:1002800084F420E030E040E05FE3C701B6017ED0B7
:100290006B017C0120E030E04AEF53E485D1DED0F1
:1002A0000FC020E030E040E05FE3C701B6016DD051
:1002B0006B017C0120E030E04AEF53E475D1CED0F1
:1002C000009104021091050220910602309107026C
:1002D000CB01770FAA0BBB0B081719072A073B079F
:1002E00024F461E08C2F68DFC3CF809104029091E9
:1002F0000502A0910602B0910702843F9140A1053A
:10030000B10524F460E08C2F57DFB2CF10920402C5
:1003100010920502109206021092070261E08C2FE3
:100320004BDFA6CFF89482E090E090938900809311
:10033000880010928000E1E8F0E0108280818860FF
:100340008083808182608083808181608083EFE60A
:10035000F0E080818260808384EC99E09093990042
:100360008093980010929000E1E9F0E01082808183
:1003700088608083808182608083E1E7F0E0808113
:1003800082608083789483E06FDF5058BB27AA2770
:100390000ED0D0C0C1D030F0C6D020F031F49F3F95
:1003A00011F41EF4B6C00EF4E095E7FBACC0E92FE3
:1003B000D2D080F3BA17620773078407950718F045
:1003C00071F49EF5EAC00EF4E0950B2EBA2FA02D25
:1003D0000B01B90190010C01CA01A0011124FF27F2
:1003E000591B99F0593F50F4503E68F11A16F040ED
:1003F000A22F232F342F4427585FF3CF46953795EC
:100400002795A795F0405395C9F77EF41F16BA0BB0
:10041000620B730B840BBAF09150A1F0FF0FBB1F5E
:10042000661F771F881FC2F70EC0BA0F621F731FA7
:10043000841F48F4879577956795B795F7959E3F04
:1004400008F0B3CF9395880F08F09927EE0F979592
:100450008795089534D008F481E0089504D0689415
:10046000B1119CC008957FD088F09F5790F0B92FAC
:100470009927B751A0F0D1F0660F771F881F991FF9
:100480001AF0BA95C9F712C0B13081F086D0B1E048
:10049000089583C0672F782F8827B85F39F0B93F58
:1004A000CCF3869577956795B395D9F73EF49095FB
:1004B0008095709561957F4F8F4F9F4F0895990F4D
:1004C0000008550FAA0BE0E8FEEF16161706E8071E
:1004D000F907C0F012161306E407F50798F0621B3F
:1004E000730B840B950B39F40A2661F0232B242B14
:1004F000252B21F408950A2609F4A140A6958FEF33
:10050000811D811D089597F99F6780E870E060E084
:1005100008959FEF80EC089500240A94161617069C
:1005200018060906089500240A94121613061406E4
:1005300005060895092E0394000C11F4882352F047
:10054000BB0F40F4BF2B11F460FF04C06F5F7F4FFF
:100550008F4F9F4F089557FD9058440F551F59F0E6
:100560005F3F71F04795880F97FB991F61F09F3FA0
:1005700079F087950895121613061406551FF2CFC9
:100580004695F1DF08C0161617061806991FF1CF19
:1005900086957105610508940895E894BB27662740
:1005A0007727CB0197F908950BD0C4CFB5DF28F09A
:1005B000BADF18F0952309F0A6CFABCF1124EECF08
:1005C000CADFA0F3959FD1F3950F50E0551F629FAE
:1005D000F001729FBB27F00DB11D639FAA27F00D9C
:1005E000B11DAA1F649F6627B00DA11D661F829FC3
:1005F0002227B00DA11D621F739FB00DA11D621FA8
:10060000839FA00D611D221F749F3327A00D611DC4
:10061000231F849F600D211D822F762F6A2F1124A6
:100620009F5750408AF0E1F088234AF0EE0FFF1FF9
:10063000BB1F661F771F881F91505040A9F79E3F30
:10064000510570F060CFAACF5F3FECF3983EDCF32A
:10065000869577956795B795F795E7959F5FC1F76D
:10066000FE2B880F911D9695879597F90895F8941C
:02067000FFCFBA
:00000001FF
