S00F00004C616231305F702E73726563D6
S113000071C0000086C0000084C0000082C00000EF
S113001080C000007EC000007CC000007AC00000E8
S113002078C0000076C0000074C0000072C00000F8
S113003070C000006EC000006CC000006AC0000008
S113004068C0000066C0000064C0000062C0000018
S113005060C000005EC000005CC000005AC0000028
S113006058C0000056C0000054C0000052C0000038
S113007050C000004EC000004CC000004AC0000048
S113008048C0000046C0000044C0000042C0000058
S113009040C000003EC000003CC000003AC0000068
S11300A038C0000036C0000034C0000032C0000078
S11300B030C000002EC000002CC000002AC0000088
S11300C028C0000026C0000024C0000022C0000098
S11300D020C000001EC000001CC000001AC00000A8
S11300E018C0000011241FBECFEFD1E2DEBFCDBF88
S11300F000E00CBF12E0A0E0B2E0ECE8F3E000E0C6
S11301000BBF02C007900D92A031B107D9F7C9D037
S11301103BC176CFE2E0F1E090819F7E908388231B
S11301201CF4908190619083E2E0F1E09081977FEC
S1130130908386FF03C09081986090839EB1977FDF
S11301409EB985FF03C09EB198609EB994B39F7D0C
S113015094BB84FF03C084B3806284BBE2E0F1E01B
S113016080818064808385E08A95F1F70000808136
S11301708F7B80830895CF93C82FCCDF8C2F8295FB
S1130180807FC8DF87EC90E00197F1F700C00000A2
S1130190CF910895CF93C82FE2E0F1E080818F7D65
S11301A080838C2FE8DFC43018F0C03850F007C0CB
S11301B08FE39FE10197F1F700C00000C0E8C0930E
S11301C00002CF910895E2E0F1E090819062908383
S11301D0D2DF809100028F5F80930002803919F092
S11301E0803D19F0089580EC01C080E8D3CF0895D4
S11301F0CF93DF93EC0102C0E6DF21968881811161
S1130200FBCFDF91CF91089583B3806283BB8DB11F
S113021088608DB9E1E0F1E080818860808380812D
S11302208061808380818062808380818064808318
S1130230E2E0F1E080818F7B808380818F7D808309
S11302408FE59AEE0197F1F700C0000080E362DFCA
S11302508FE090E40197F1F700C0000080E35ADFDB
S11302608FE891E00197F1F700C0000080E352DFCE
S113027087EC90E00197F1F700C0000080E24ADFCC
S113028087EC90E00197F1F700C0000088E282DF7C
S113029088E080DF81E07EDF86E07CDF8CE07ACF5F
S11302A00895CF93DF93CDB7DEB76D970FB6F8946B
S11302B0DEBF0FBECDBFA8DF8FE0E1E0F2E08E012C
S11302C00F5F1F4FD80101900D928A95E1F7F80155
S11302D001900020E9F7CF0101974AE0BE01605F79
S11302E07F4F801B910B1DD081E854DFC80180DF54
S11302F081EC50DFCE0140967BDFFFEF23ED80E3FE
S1130300F15020408040E1F700C000007DDF9FEF06
S1130310E3EDF0E39150E040F040E1F700C000006D
S1130320CBCFBB274A3031F4992322F4BDE2909518
S113033081959F4F01C0BB27FB015527AA27880F32
S1130340991FAA1FA41710F0A41B83955051B9F745
S1130350A05DAA3308F0A95DA193009779F7B111C4
S1130360B1931192CB0100C0DC01FC01672F7191A4
S11303707723E1F7329704C07C916D937083629187
S10F0380AE17BF07C8F30895F894FFCF30
S113038C804F6E6554776F54687265466F75720052
S9030000FC
