:020000020000FC
:1000000061E27FEF6EBF7DBF01E260D0FFD00027CD
:100010005DD0FCD008E35AD000D1002757D0F6D0ED
:1000200001E254D0F3D0002751D04FC01AE282D061
:1000300015E180D01AE27ED015E17CD0E7D0E6D081
:100040001AE27FD015E17DD01AE27BD015E179D09C
:100050001AE277D015E175D01AE273D015E171D0AC
:1000600034C008EF0F9374D00F910CED0F9370D044
:100070000F9140E24F936CD04F914695D9F725C030
:1000800055E45F9370D05F919F9362D09F91BED0F3
:1000900051E45F9368D05F919F935AD09F91B6D0FF
:1000A0005DE45F9360D05F919F9352D09F91AED0FB
:1000B00058E45F9358D05F919F934AD09F91A6D008
:1000C00004C09CE088ED7DD000C0FFCF4427AFEF97
:1000D000BFEFC0E80F73000F000F423061F043958F
:1000E000000F20F0A695A6950C946D00A695A695F8
:1000F000AC0F0C946D00A695A695A695A6954630D6
:1001000051F04395B695B695000F10F00C947F0012
:10011000BC0F0C947F004FEF40930A0144B9B09399
:100120000B01A5B90C94940000274427AA27BB27EC
:10013000CC2708950027010FC9DF68D00027C6DF4C
:1001400008950027010FC2DF68D00027BFDF0895A0
:100150001127DEB7CDB71C8130EC3123303C51F391
:10016000F0DF3327089599272227332736E04427E5
:10017000DEB7CDB72C81FCE0E0E044913896421721
:1001800019F04030C1F0F9CF9FE3379700C0459197
:100190004F3629F0990F3A95303039F0F8CF990F52
:1001A00093953A95303009F0F2CF4491423009F0FE
:1001B00002C09F7300C0222733274427DD27CC27A6
:1001C0000895FF27EE27F92FE82F992788275591C3
:1001D000AE2FBF2F5F93503051F0C5DF5F91EA2FF4
:1001E000FB2F9F930E94A8009F9110D0F0CF112762
:1001F0005527662777279927AA27BB27DD27EE27CC
:10020000FF27FF91EF91FF91EF9109940F930EE07B
:100210000BD00A95E9F70F9108950F9304E004D0ED
:100220000A95E9F70F91089501D008950F931F9350
:100230002F9308E00A9539F01FEF1A95D9F32FEFA5
:0E0240002A95D9F3FDCF2F911F910F910895AC
:100C0000412E2E6F6F2E2E01422E6F2E2E6F2E0232
:100C1000436F2E6F2E2E2E01442E2E2E2E2E6F0160
:100C2000456F6F6F6F6F6F01462E6F6F6F6F2E0284
:100C3000476F6F2E2E6F6F02482E2E6F6F2E2E0273
:100C4000492E6F2E2E6F2E014A2E2E2E2E2E6F0223
:100C50004B2E2E2E2E6F6F024C6F2E6F2E6F2E018D
:100C60004D6F6F6F6F6F6F024E6F6F2E2E2E2E01B6
:100C70004F2E6F6F6F6F2E01506F2E6F6F2E6F01A3
:100C8000516F2E6F6F2E6F02526F6F2E2E6F6F018E
:100C9000532E2E2E2E6F6F01542E2E6F6F2E2E017F
:100CA000556F2E2E2E2E2E01566F2E6F2E6F2E026A
:100CB000576F2E6F2E2E2E02586F6F2E2E2E2E0255
:100CC000592E2E6F6F2E2E025A6F2E2E2E2E2E0282
:100CD0002D6F2E2E2E6F6F0148454C4C4F574F52A3
:100CE0004C44000054484500515549434B00425282
:100CF0004F574E00464F58004A554D50454400004E
:100D00004F5645520000544845004C415A59000086
:040D1000444F470005
:00000001FF
